{
  "_format": "hh3-artifact-1",
  "contractName": "CreditRegistry",
  "sourceName": "contracts/CreditRegistry.sol",
  "abi": [
    {
      "inputs": [
        {
          "internalType": "address",
          "name": "_verifier",
          "type": "address"
        }
      ],
      "stateMutability": "nonpayable",
      "type": "constructor"
    },
    {
      "inputs": [],
      "name": "EnforcedPause",
      "type": "error"
    },
    {
      "inputs": [],
      "name": "ExpectedPause",
      "type": "error"
    },
    {
      "inputs": [
        {
          "internalType": "address",
          "name": "owner",
          "type": "address"
        }
      ],
      "name": "OwnableInvalidOwner",
      "type": "error"
    },
    {
      "inputs": [
        {
          "internalType": "address",
          "name": "account",
          "type": "address"
        }
      ],
      "name": "OwnableUnauthorizedAccount",
      "type": "error"
    },
    {
      "anonymous": false,
      "inputs": [
        {
          "indexed": true,
          "internalType": "address",
          "name": "user",
          "type": "address"
        },
        {
          "indexed": true,
          "internalType": "uint256",
          "name": "applicationId",
          "type": "uint256"
        },
        {
          "indexed": false,
          "internalType": "bool",
          "name": "isApproved",
          "type": "bool"
        }
      ],
      "name": "CreditAnchored",
      "type": "event"
    },
    {
      "anonymous": false,
      "inputs": [
        {
          "indexed": true,
          "internalType": "address",
          "name": "previousOwner",
          "type": "address"
        },
        {
          "indexed": true,
          "internalType": "address",
          "name": "newOwner",
          "type": "address"
        }
      ],
      "name": "OwnershipTransferred",
      "type": "event"
    },
    {
      "anonymous": false,
      "inputs": [
        {
          "indexed": false,
          "internalType": "address",
          "name": "account",
          "type": "address"
        }
      ],
      "name": "Paused",
      "type": "event"
    },
    {
      "anonymous": false,
      "inputs": [
        {
          "indexed": false,
          "internalType": "address",
          "name": "account",
          "type": "address"
        }
      ],
      "name": "Unpaused",
      "type": "event"
    },
    {
      "inputs": [
        {
          "internalType": "uint256",
          "name": "applicationId",
          "type": "uint256"
        },
        {
          "internalType": "uint256[2]",
          "name": "proofA",
          "type": "uint256[2]"
        },
        {
          "internalType": "uint256[2][2]",
          "name": "proofB",
          "type": "uint256[2][2]"
        },
        {
          "internalType": "uint256[2]",
          "name": "proofC",
          "type": "uint256[2]"
        },
        {
          "internalType": "uint256[1]",
          "name": "publicSignals",
          "type": "uint256[1]"
        }
      ],
      "name": "anchorCreditDecision",
      "outputs": [],
      "stateMutability": "nonpayable",
      "type": "function"
    },
    {
      "inputs": [],
      "name": "owner",
      "outputs": [
        {
          "internalType": "address",
          "name": "",
          "type": "address"
        }
      ],
      "stateMutability": "view",
      "type": "function"
    },
    {
      "inputs": [],
      "name": "pause",
      "outputs": [],
      "stateMutability": "nonpayable",
      "type": "function"
    },
    {
      "inputs": [],
      "name": "paused",
      "outputs": [
        {
          "internalType": "bool",
          "name": "",
          "type": "bool"
        }
      ],
      "stateMutability": "view",
      "type": "function"
    },
    {
      "inputs": [],
      "name": "renounceOwnership",
      "outputs": [],
      "stateMutability": "nonpayable",
      "type": "function"
    },
    {
      "inputs": [
        {
          "internalType": "address",
          "name": "newOwner",
          "type": "address"
        }
      ],
      "name": "transferOwnership",
      "outputs": [],
      "stateMutability": "nonpayable",
      "type": "function"
    },
    {
      "inputs": [],
      "name": "unpause",
      "outputs": [],
      "stateMutability": "nonpayable",
      "type": "function"
    },
    {
      "inputs": [
        {
          "internalType": "address",
          "name": "",
          "type": "address"
        },
        {
          "internalType": "uint256",
          "name": "",
          "type": "uint256"
        }
      ],
      "name": "userApplications",
      "outputs": [
        {
          "internalType": "bool",
          "name": "isApproved",
          "type": "bool"
        },
        {
          "internalType": "uint256",
          "name": "timestamp",
          "type": "uint256"
        },
        {
          "internalType": "bool",
          "name": "exists",
          "type": "bool"
        }
      ],
      "stateMutability": "view",
      "type": "function"
    },
    {
      "inputs": [],
      "name": "verifier",
      "outputs": [
        {
          "internalType": "contract IVerifier",
          "name": "",
          "type": "address"
        }
      ],
      "stateMutability": "view",
      "type": "function"
    }
  ],
  "bytecode": "0x60a060405234801561000f575f5ffd5b506040516107ea3803806107ea83398101604081905261002e916100bd565b338061005357604051631e4fbdf760e01b81525f600482015260240160405180910390fd5b61005c8161006e565b506001600160a01b03166080526100ea565b5f80546001600160a01b038381166001600160a01b0319831681178455604051919092169283917f8be0079c531659141344cd1fd0a4f28419497f9722a3daafe3b4186f6b6457e09190a35050565b5f602082840312156100cd575f5ffd5b81516001600160a01b03811681146100e3575f5ffd5b9392505050565b6080516106e16101095f395f818161010e015261023001526106e15ff3fe608060405234801561000f575f5ffd5b5060043610610090575f3560e01c80635c975abb116100635780635c975abb14610150578063715018a61461016c5780638456cb59146101745780638da5cb5b1461017c578063f2fde38b1461018c575f5ffd5b80630d395eb9146100945780632229bc24146100f45780632b7ac3f3146101095780633f4ba83a14610148575b5f5ffd5b6100d06100a2366004610576565b600160208181525f9384526040808520909152918352912080549181015460029091015460ff928316921683565b60408051931515845260208401929092521515908201526060015b60405180910390f35b6101076101023660046105b4565b61019f565b005b6101307f000000000000000000000000000000000000000000000000000000000000000081565b6040516001600160a01b0390911681526020016100eb565b610107610387565b5f54600160a01b900460ff1660405190151581526020016100eb565b610107610399565b6101076103aa565b5f546001600160a01b0316610130565b61010761019a36600461061d565b6103ba565b6101a76103f7565b335f90815260016020908152604080832088845290915290206002015460ff16156102195760405162461bcd60e51b815260206004820152601c60248201527f4170706c69636174696f6e20494420616c726561647920757365642e0000000060448201526064015b60405180910390fd5b6040516343753b4d60e01b81526001600160a01b037f000000000000000000000000000000000000000000000000000000000000000016906343753b4d9061026b90879087908790879060040161063d565b602060405180830381865afa158015610286573d5f5f3e3d5ffd5b505050506040513d601f19601f820116820180604052508101906102aa919061068c565b6102ea5760405162461bcd60e51b815260206004820152601160248201527024b73b30b634b2102d2590383937b7b31760791b6044820152606401610210565b60408051606081018252600183358114808352426020808501918252848601848152335f8181528684528881208e825284528890209651875490151560ff19918216178855935195870195909555516002909501805495151595909216949094179055925183815288927f78f84bc835a5beb393d69e9f6c5253c31f4df7ec422ce1f2770c569e30a178e8910160405180910390a3505050505050565b61038f610421565b61039761044d565b565b6103a1610421565b6103975f6104a1565b6103b2610421565b6103976104f0565b6103c2610421565b6001600160a01b0381166103eb57604051631e4fbdf760e01b81525f6004820152602401610210565b6103f4816104a1565b50565b5f54600160a01b900460ff16156103975760405163d93c066560e01b815260040160405180910390fd5b5f546001600160a01b031633146103975760405163118cdaa760e01b8152336004820152602401610210565b610455610532565b5f805460ff60a01b191690557f5db9ee0a495bf2e6ff9c91a7834c1ba4fdd244a5e8aa4e537bd38aeae4b073aa335b6040516001600160a01b03909116815260200160405180910390a1565b5f80546001600160a01b038381166001600160a01b0319831681178455604051919092169283917f8be0079c531659141344cd1fd0a4f28419497f9722a3daafe3b4186f6b6457e09190a35050565b6104f86103f7565b5f805460ff60a01b1916600160a01b1790557f62e78cea01bee320cd4e420270b5ea74000d11b0c9f74754ebdbfc544b05a2586104843390565b5f54600160a01b900460ff1661039757604051638dfc202b60e01b815260040160405180910390fd5b80356001600160a01b0381168114610571575f5ffd5b919050565b5f5f60408385031215610587575f5ffd5b6105908361055b565b946020939093013593505050565b80604081018310156105ae575f5ffd5b92915050565b5f5f5f5f5f61014086880312156105c9575f5ffd5b853594506105da876020880161059e565b935060e08601878111156105ec575f5ffd5b6060870193506105fc888261059e565b925050866101408701111561060f575f5ffd5b509295919450926101200190565b5f6020828403121561062d575f5ffd5b6106368261055b565b9392505050565b6101208101604086833760408201855f5b600281101561066f576040828437604092830192919091019060010161064e565b50505060408460c084013760208361010084013795945050505050565b5f6020828403121561069c575f5ffd5b81518015158114610636575f5ffdfea26469706673582212207703321660daa69ec0004601b11452011562adb38aa556f7f74fa30b83093ffb64736f6c634300081d0033",
  "linkReferences": {},
  "deployedLinkReferences": {},
  "immutableReferences": {
    "320": [
      {
        "length": 32,
        "start": 270
      },
      {
        "length": 32,
        "start": 560
      }
    ]
  },
  "inputSourceName": "project/contracts/CreditRegistry.sol",
  "buildInfoId": "solc-0_8_29-997219290941d64b4c39fc09db95b3828b5f8b4c"
}